:020000040001F9
:10B0000008320020F5B001000FB1010011B10100BC
:10B010000000000000000000000000000000000030
:10B0200000000000000000000000000013B101005B
:10B03000000000000000000015B1010017B1010080
:10B0400019B1010019B1010009B5010019B10100E0
:10B0500019B101000000000089B2010019B101001E
:10B0600019B1010019B1010019B1010019B10100B4
:10B0700019B1010019B1010019B1010019B10100A4
:10B0800019B1010021B4010019B1010019B1010089
:10B0900041B4010019B1010049B4010019B1010026
:10B0A00019B1010019B1010000000000000000000A
:10B0B0000000000000000000000000000000000090
:10B0C0000348854600F0A2F80048004701E7010068
:10B0D00008320020401E00BF00BF00BF00BF00BFFD
:10B0E00000BF00BF00BF00BF00BF00BF00BFF1D165
:10B0F000704700000321094802680A4302600848BB
:10B1000002680A4302600748804707480047FEE795
:10B11000FEE7FEE7FEE7FEE7FEE70000240500404D
:10B120005405004069B40100C1B0010030B50B46C0
:10B13000014600202022012409E00D46D5409D4211
:10B1400005D31D469540491B254695404019154697
:10B15000521E002DF1DC30BD70B5002425460028BC
:10B1600001DA01244042002901DA01254942FFF7B2
:10B17000DDFFAC4200D04042002C00D0494270BDFF
:10B1800010B5431A934209D28318881803E0401E71
:10B1900001785B1E1970521EF9D210BD03460B4395
:10B1A0009B0703D009E008C9121F08C0042AFAD27D
:10B1B00003E00B780370401C491C521EF9D210BDED
:10B1C000D2B201E00270401C491EFBD2704700223F
:10B1D000F6E710B513460A4604461946FFF7F0FF96
:10B1E000204610BD421C0178401C0029FBD1801A6A
:10B1F000704730B504460020034600E05B1C9342D4
:10B2000003D2E05CCD5C401BF8D030BD064C01257C
:10B21000064E05E0E36807CC2B430C3C98471034FE
:10B22000B442F7D3FFF750FFB0FF0100D0FF010099
:10B2300070B58C180578401C6B075B0F01D1037843
:10B24000401C2A1106D10278401C03E006780E70DB
:10B25000401C491C5B1EF9D12B0705D40023521E4C
:10B260000DD40B70491CFAE70378401CCB1A921CD2
:10B2700003E01D780D70491C5B1C521EF9D5A142DC
:10B28000D8D3002070BD0000F0B50025FF248BB09E
:10B29000013401262F460195204603F059FC002871
:10B2A00008D047484068304204D046480021201862
:10B2B00035430160241D76007F1CA4B2042FEBD31C
:10B2C000FF207D3003F044FC002807D03E480021D9
:10B2D0000160400705433D48006901903C4C280748
:10B2E00012D0012700262F420AD03A48B200111886
:10B2F00008690969C004C00E8903A258890F9047E4
:10B300007F00761C042EEED3002D57DA0020059026
:10B31000401E4DE0A119403108788506AD0E42B2BD
:10B32000521C39D00121A940089A0091114233D012
:10B3300080090390284601F033FE800020580490D5
:10B34000002802D10398032826D1039800990328E6
:10B3500002D10598084305901F4AA800801800688C
:10B36000019A8003800F114202D0022802D013E01C
:10B37000032811D10399032907D102281CD00221E7
:10B38000284603F0D5FB7F1CFFB20498002803D0A9
:10B39000049A284603999047761C042EBAD3002FAE
:10B3A0000CD00A4800690199884207D0019005989D
:10B3B00000273E460890ADE70321E1E70BB0F0BD62
:10B3C00000630040006000407C61004000050050C8
:10B3D0005428002000650040000700508307FF222A
:10B3E000DB0E9A408907090E994000280BDA000706
:10B3F000000F0838830808489B001818C369934356
:10B400000B43C3617047830804489B001B181868EE
:10B41000904308431860704700ED00E000E400E04E
:10B4200010B506490020086048608860C86003497C
:10B4300040390860486004F029FB10BD401101400C
:10B4400010B504F0B9FA10BD10B5064840680028E0
:10B4500005D08047002801D000F088FA10BD02F026
:10B46000BBFF10BDD421002010B502F0FFFF002863
:10B4700005D01F491D484860C8131E4988611E48F1
:10B48000018CC9B201290BD1828C120708D1028D1F
:10B490001206120F042A03D1828D1206120F0AD04F
:10B4A000012921D1818C09071ED1018D0906090FBF
:10B4B0000A2904D007E0114A01219160F5E7828D45
:10B4C0001206120F05D00D290ED1808D0006000F37
:10B4D0000AD10B480168012904D00A4901600168BA
:10B4E0000129FCD1C021416110BD0000DFFF07C070
:10B4F00000050040006C0040C00F00F00006004056
:10B5000000EC06407593000010B504F065FB10BD1B
:10B5100030B47446641E2578641CAB4200D21D46CC
:10B52000635D5B00E31830BC184702E008C8121FD7
:10B5300008C1002AFAD170477047002001E001C11C
:10B54000121F002AFBD17047F7B584B0002516887A
:10B5500007461580406B1446002813D003780598E1
:10B56000032E51D30221017021881122491C89B276
:10B57000218042542188491C89B22180435420886B
:10B58000401C2080386B00281DD005462088059976
:10B5900002461232B24237D811220A5420881022B1
:10B5A000401C80B220800A542088401C20800F203C
:10B5B0002A5C2388401ECA54228840B2521C228032
:10B5C0000028F5DA0025384620300290807B0028DC
:10B5D00006D033462246059902F094FF050014D1A7
:10B5E0000298407B002806D032462146059800F09C
:10B5F0006BFF050009D1B878002823D0059886464E
:10B600002088001DB04202D90C2007B0F0BD68466A
:10B6100079DF0028F9D12188032072465054208810
:10B620001921401C80B22080115420887146401C92
:10B6300080B2208041186846008804F061FB2188B0
:10B6400040182080F878002817D0218803230A4664
:10B65000FB56C91C0598B142D6D8022181542188D5
:10B660000122491C89B2218042542188491C89B297
:10B67000218043542088401C20807868002817D0FF
:10B6800021880023C3560A46C91C0598B142BBD87D
:10B690000221815421880A22491C89B22180425406
:10B6A0002188491C89B2218043542088401C208075
:10B6B000388900280AD000943846019606220221D3
:10B6C0000830059B04F09BFB05009ED1388A0028BA
:10B6D0000AD0009438460196072203211030059BBA
:10B6E00004F08DFB050090D1388B00280AD000941F
:10B6F00038460196152214211830059B04F07FFB73
:10B70000050082D1386A002806D0334622460599C2
:10B7100001F0F2FD0500D8D1786A002806D0334642
:10B720002246059903F05AF80500CED10298007B15
:10B73000002807D0334622463846059903F035FEE7
:10B740000500C2D13878002807D033462246384653
:10B75000059903F077F80500B7D1284655E710B5ED
:10B7600001220221002001F047FA002801D0072819
:10B7700012D107220221012001F03EFA002801D057
:10B78000072809D100210A22084601F035FA0028CD
:10B7900001D0072800D1002010BD000010B598B0DE
:10B7A000382101A8FFF713FD022168460171012429
:10B7B00084710621C171042181820D4806902421E3
:10B7C0000FA8FFF704FD10A80472FF20E1301390CA
:10B7D000B4201490002001460090064B0FAA01A847
:10B7E00000F060FB002801D000F0C0F818B010BDD8
:10B7F000A42000207FEB0100044842680121C90514
:10B800000B46934383600A40C260704700050050B6
:10B8100070B504460FCC114D0FC5A0882880E08874
:10B8200068802089A880A07AE880284621460830D0
:10B8300007220B310646103C103DFFF7A1FC606A61
:10B84000286228460321203001710021AE62017375
:10B850002963228AAA86E986017670BDF421002038
:10B860007047000010B58AB0684602F0B1FA014690
:10B8700000231A46684672DF084C002803D0216A6C
:10B88000002900D088470548243073DF002803D002
:10B89000216A002900D088470AB010BDF421002099
:10B8A00074DF002804D00349096A002900D0084742
:10B8B00070470000F421002070B50024064D06E01A
:10B8C0006968E000085C012103F042F8641C2878F4
:10B8D0008442F5D3002070BDA0210020F8B51546A4
:10B8E0000C460646052A01D20720F8BD03F006F9EA
:10B8F000002803D103F0D8F80028F6D11049002021
:10B900004E600C70C8608D6008610E4D0DE0E00067
:10B9100069688019009181786A46517000780A4AF6
:10B92000694603F065F80028DFD12046641EE4B2C2
:10B930000028ECD1054A0021024800F04FF8F8BD7C
:10B94000A0210020A8FF0100F5E00100C1D4010002
:10B95000BFF34F8F04490348C860BFF34F8F00BF48
:10B96000FDE700000400FA0500ED00E00EB500213F
:10B97000029000916A4601910148FFF7E9FF0EBD70
:10B9800001400000014B1B681847000030280020D0
:10B9900038B50C46A2680C235A43064B09789D58CB
:10B9A000054A126A00920246204608302369A847D9
:10B9B00038BD0000842900207C21002010B50649F4
:10B9C00014230A785A435118091DFFF7E1FF042098
:10B9D00003F008FE10BD0000B8280020094B9B684A
:10B9E000002B07D0002A07D0002805D00068037C70
:10B9F000002B03D008207047072070474174426134
:10BA000000207047B4210020FFB59007002581B0C9
:10BA100014460E46002832D11B4F002C31D003F0C3
:10BA2000B9FB049878610320387033461821224608
:10BA300000204B43BC601834C10089180D704D7054
:10BA40008E704C601C19401C0328F5DBFD607D7076
:10BA500001240E48BD702405046003211420FFF763
:10BA6000BDFC0B4804600B4C0198A0600321112021
:10BA7000FFF7B4FC60683861002005B0F0BD072016
:10BA8000FBE7BD60FBE70000B421002080E200E09E
:10BA900000E100E000150140FEB50D461B491746C8
:10BAA0008968044600292AD0002C28D0052D01D20F
:10BAB0000720FEBD6069002821D0607C012820D0CD
:10BAC000002604F05FF9C000104901908968401811
:10BAD000694604F081F9002815D0012101700C4954
:10BAE000446049680830E2C00849019889684118F3
:10BAF00068460078487003F0A1FF0020FEBD0820D2
:10BB0000FEBD2E46DDE70420FEBD0000B42100206E
:10BB100000150140F8B5134D0446A96800291CD052
:10BB2000002C1AD06069002817D00026267404F073
:10BB300029F9C700A8686946381804F04DF90028AB
:10BB40000DD0022101704460A86839186846007859
:10BB5000487003F073FF3046F8BD0820F8BD04209C
:10BB6000F8BD0000B421002010B5144C01210022C2
:10BB700009042068FFF790FF002801D0FFF7F6FEC8
:10BB800001210022C9036068FFF786FF002801D069
:10BB9000FFF7ECFE00220A49A068FFF77DFF0028AE
:10BBA00001D0FFF7E3FE05210022C903E068FFF79B
:10BBB00073FF002801D0FFF7D9FE10BDECFE010095
:10BBC0006626000070B500240546601C90B0000792
:10BBD000000F08A9103008940870601C0007000FBF
:10BBE000103048708878F9263040801C88701C21FD
:10BBF00001A8FFF7ECFA6946087912210843694663
:10BC00000871029408A80494059407940690A87CEF
:10BC100008A9887114486946888411200094087026
:10BC2000002048708878F7213040801C0840EF21C0
:10BC30000840400840006946887014210AA8FFF7B0
:10BC4000C6FA09A80A9068460B9001206946088642
:10BC500003204C8688860E942B4628880A330AAA2D
:10BC600001A9A2DF10B070BD0B120000F0B50546AF
:10BC7000007D002493B00E4600280DD0012001461F
:10BC80006846103103940173717B4173817BF92005
:10BC900001406846891C81731C2104A8FFF797FAAC
:10BCA0006946087C02210843694608742A7DEF2111
:10BCB000002A02D01022104300E008406A461074A7
:10BCC000059407940894287D002800D003A80990C3
:10BCD00001270A9410469771304A82800094B27B03
:10BCE0000270F27B42708078F9221040F722801CAB
:10BCF0001040EF2108404108490068468170317BBF
:10BD0000017214210BA8FFF762FA01A80B90684694
:10BD10000C908786C486078702A80F90A888AB1D61
:10BD20000BAA04A9A2DF002835D1B068002830D0C2
:10BD3000684687711A4981800094317C0170002027
:10BD40000146684641708078F9210840F721801C3F
:10BD50000840EF210840410849006846817011A859
:10BD6000B16800F0A8FD064614210BA8FFF72FFAD2
:10BD700001A80B9068460C908686C486068711A899
:10BD80000F902A46E8880E320BA9A3DF002802D1C3
:10BD900000E0EC81002013B0F0BD0000192A000083
:10BDA0000829000010B50B490B4803F0F1FAC1B2A5
:10BDB0000848683800F088FA002809D0082807D019
:10BDC0000649884204D00649884201D0FFF7CEFDDB
:10BDD00010BD0000502500208C2000200430000001
:10BDE0000134000010B50F4C0D481ECC1EC0FF21C1
:10BDF0009131103801610C4981820C49C18259216D
:10BE00000183C32181760A4941621B3071DF00281A
:10BE100001D0FFF7ABFD0248FFF7FAFC10BD0000B0
:10BE2000C0240020B4200020341200007856000006
:10BE300035BE010010B5FFF799FD10BDF0B50C46F9
:10BE400093B01F216A4611800726002791800028A1
:10BE500009D0C17849070DD502A9FFF775FB002865
:10BE600009D102AD01E000251780002C0ED0E0784A
:10BE7000002802D0304613B0F0BD01AA0AA920461E
:10BE8000FFF762FB0028F6D10AAA02E0684600220A
:10BE9000878068468088C3B268460088C1B2284659
:10BEA00072DFE8E770B50D4604991646040042D0EB
:10BEB000002E40D0424800224271C360016124221A
:10BEC00031464048FFF75CF900F0D4F83D49343181
:10BED0000846103801602031816038215C38FFF756
:10BEE00076F93848217838380170A1788170E17886
:10BEF000C170617841706269216942610161E268E3
:10BF0000A168C26081600146E369A269CB618A6170
:10BF1000616A002919D00146AC310246B83241624B
:10BF20008A60636A1B880B80616A436A898899808A
:10BF30000021436A06E00E2070BD666AB668765C32
:10BF40005654491C9E888E42F7D8A16A00291CD0FD
:10BF50001C4AAC3211460C398A608162A36A9B8804
:10BF60008B80A16A836A098819800021836A04E0B2
:10BF7000A66AB668765C5654491C9E888E42F7D8ED
:10BF80002C210A5D0F4918390A73216A002909D04A
:10BF90000B4914310162226A52884A80216A026A7E
:10BFA000098811806168002904D00549891D416014
:10BFB00061684160034829463838FFF73FFF70BD8C
:10BFC000E42000202426002010B502881C4C102AF2
:10BFD00017D00021112A1AD01B2A11D1007A00286B
:10BFE0000ED1607901281ED0022822D0032822D049
:10BFF000042805D12171E2680846002A00D0904744
:10C0000010BD817D0129FBD18088208110BD617028
:10C01000808821898842F9D1012005E02169002921
:10C02000F4D0884710BD022000F058F80028F5D160
:10C0300010BD0320F8E7032020710420F4E700007E
:10C04000E420002010B5022801D003280ED1084CAE
:10C05000207800280AD000202070607900F03EF897
:10C06000002803D02169002900D0884710BD0000B6
:10C07000E420002010B507210148FFF7A8F810BD03
:10C08000FC20002010B51348007801281FD1124C65
:10C09000607800281BD16079002802D074DF002866
:10C0A00016D101200B49607006203839C870094844
:10C0B00000213838FFF7C2FE002809D1607900F06E
:10C0C0000DF8002803D02169002900D088470020FE
:10C0D00010BD000024260020E4200020F0B5784C9C
:10C0E00087B06071002606A8069602F009FE0127B7
:10C0F000082802D0002808D104E006A801F0EAFED2
:10C10000002804D10698002801D02770D4E0FFF75A
:10C11000B1FF6C4D6878002802D06079012807D003
:10C12000A87800280CD06079012801D0022824D1F9
:10C13000E168002903D0E7700820884700E0E67036
:10C140006079012808D16878002809D05C48193046
:10C1500002F036FD002803D06079022802D00CE0FE
:10C1600002206071A878002805D05548193002F0E7
:10C1700027FD002801D103206071287B002804D10D
:10C180006079032801D104206071287E002804D141
:10C190006079042801D166712671E16800290AD00E
:10C1A0006079032801D0042805D12878002802D01E
:10C1B0006078002817D0A67018216846FFF707F8A6
:10C1C00068460670019606720396607901280ED0C3
:10C1D000022815D03B4E243637465C3F03281BD03F
:10C1E00004285DD13AE0A77007208847E4E7344887
:10C1F000183001906846077046820682277152E027
:10C200002F48183001906846077029894182A98813
:10C2100001820220207146E0A88A69464882288A65
:10C2200008822848243003F059FE002805D02878D9
:10C23000002802D06078002801D003202FE00220DF
:10C240006946087204200396F8701E4800213838A9
:10C25000FFF7F4FD002830D1052020E0A88B6946C7
:10C260000882288C48821748243003F037FE0028C3
:10C2700005D02878002802D06078002801D004205A
:10C280000DE002206946087204200396F8700D48FC
:10C2900000213838FFF7D2FD00280ED1062020718A
:10C2A0006079002803D0684673DF002805D1E16873
:10C2B000002901D020798847002007B0F0BD000098
:10C2C000E42000202426002073B586B004002FD07F
:10C2D0006A46217C127F0020914227D0002501264A
:10C2E000684600950680458007A80190E188608A2D
:10C2F0006A46A4DF002819D16846007F2074608A4E
:10C300000D49884216D0207D002813D00295039550
:10C3100004950595E188684601818672418881818E
:10C32000049001980590608A02A9A6DF08B070BD4C
:10C330000E20FBE70820F9E7FFFF000038B50D46A7
:10C3400004001AD0002D18D0286820600020C043B7
:10C35000608228792075FF20207401216846817051
:10C3600007490180221D69460120A0DF002803D172
:10C3700029462046FFF77AFC38BD0E2038BD000064
:10C380000F18000038B5002824D0002922D00A88D0
:10C39000102A1AD0112A1AD0502A1BD1027D002A45
:10C3A00018D0CA884389891D9A4213D14A89022A22
:10C3B00010D10268002A0DD04B7B0C7B190221435F
:10C3C000C907C90F07D0002106E0898801E00021D4
:10C3D000C943418238BD01216B46197069469047B7
:10C3E00038BD000070B5054601461C220E48FEF718
:10C3F000C7FE0E4C002626702968002906D00822A8
:10C40000201DFEF7BDFE201D7ADF02E00748001D5B
:10C410007BDF002807D1401E60806670044A00213F
:10C420000448FFF7DBFA70BD10270020042100202C
:10C4300021FD01003CFF0100F8B5214C02880027D6
:10C440001E4DE689102A15D01E49112A21D0122A24
:10C450002DD0502A1CD1C288801DB24218D14289E9
:10C46000022A15D1427B037B10021843C007C00F7C
:10C470000CD112E0818869800146104808221831E9
:10C480000C30FEF77DFE6F70002E01D100F07CFFB6
:10C49000F8BD0020C04368806F700868FFF73AFB62
:10C4A0000028F5D0A1690029F2D08847F8BD0822FC
:10C4B000811802480C30FEF763FEE7E704210020F4
:10C4C000102700203CFF01007CB5054608880C467B
:10C4D0000930904201D90C207CBD684671DF0028EC
:10C4E000FAD121880820685420881B21401C80B282
:10C4F00020802954208800A9401C80B22080401947
:10C5000006220131FEF73CFE20886946801D80B27C
:10C5100020800978002900D0012129542088401C5E
:10C52000208000207CBD000030B50446002085B08E
:10C53000C043A08208681B4B0D46A0610FCB03933C
:10C540006B4607C321461231684663DF002826D1B7
:10C55000A17C6846817414490182224604A9012005
:10C56000A0DF00281BD12946204603F05FF80028F1
:10C5700015D12946204602F0F1FF00280FD12946A7
:10C58000204602F079FB002809D12946204601F017
:10C59000D9FD002803D129462046FFF713FB05B03B
:10C5A00030BD000070FF01009B1100007FB5044604
:10C5B0000121684681714A4981804A4A01A90120C6
:10C5C000A0DF00287ED1228825463C35002A09D0EC
:10C5D00044482B46801C00904348616800F0E8FC0A
:10C5E00000287BD12289002A0AD03E482B460A30F7
:10C5F00000903D48E168401F00F0DAFC00286DD152
:10C60000228A002A0AD037482B461230009036483A
:10C610006169001F00F0CCFC00285FD1228B002A4A
:10C620000AD030482B461A3000902F48E169801E0E
:10C6300000F0BEFC002851D1228C002A0AD02948E3
:10C640002B46223000902848616AC01E00F0B0FCE2
:10C65000002843D1228D002A0AD022482B462A30B6
:10C6600000902148E16A401E00F0A2FC002835D16C
:10C67000216B00290ED002A803F069F919482B4656
:10C68000323000901848082202A9801F00F090FC68
:10C69000002823D1606B00280BD012492B463A3179
:10C6A0000091027901681048401C00F081FC0028CC
:10C6B00014D1A16B002910D002A802F0C1FA0948D8
:10C6C000423000E00AE0009007482B46072202A90A
:10C6D000273000F06DFC002800D1002004B070BDB0
:10C6E0000A18000018210020292A000010B504466D
:10C6F00001F00EF821461B4800F092F81948214637
:10C700001838FFF73FFE2046FFF796FE204600F060
:10C71000ABF92088102802D011281FD10CE0072087
:10C7200000F08EFA002801D0FFF720F90E49A0880A
:10C730008880FFF797F811E0002000F081FA0028C8
:10C7400001D0FFF713F9FFF7ABF8FFF727F8032045
:10C75000FFF7C4FC002801D0FFF708F92046FFF7D7
:10C7600033FC10BD002500208020002030B5044699
:10C77000008C134A8BB090421FD006AA204601F0CD
:10C78000E7FD69460546088000200190029003906D
:10C79000049022898A8001228A71088106A8039167
:10C7A0000490208C01A9A6DF002804D169460988DD
:10C7B000A94200D00C200BB030BD0820FBE70000E0
:10C7C000FFFF000038B504460868206008796071F2
:10C7D0000020C0430D4620840020222108554C2112
:10C7E00008530121684681700C490180A21D6946E9
:10C7F0000120A0DF00280FD12946204601F050FD7E
:10C80000002809D1A868002805D02946204600F054
:10C8100099F8002800D1002038BD00000D18000054
:10C8200038B50A88102A17D0112A17D0502A18D1E3
:10C83000CA888389891D9A4213D14A89022A10D154
:10C840000268002A0DD04B7B0C7B19022143C907DB
:10C85000C90F07D0002106E0898801E00021C94303
:10C86000018438BD01216B4619706946904738BD77
:10C8700070B5054604464035A8890E46142807D1F0
:10C880002622A118881EFEF77BFCA889401EA881DD
:10C8900080B241000919401CA8818E8470BD2030EF
:10C8A0008170704770B504460D460846FEF79AFC45
:10C8B0002080656070BD0A7802704978417002205E
:10C8C0007047000000B51A4887B000690590002342
:10C8D0004822184905A802F01BFF002801D0FFF7E5
:10C8E00045F86A460121002002F0F8FE002801D038
:10C8F000FFF73CF8104802F099FC002801D0FFF740
:10C9000035F8684602F0E0FE002801D0FFF72EF867
:10C910000A4802F0CFFE002801D0FFF727F80848A8
:10C9200002F010FF002801D0FFF720F807B000BD8B
:10C93000ECFE010078240020E81F0020EDC6010075
:10C9400039F90100F0B58FB00D4606461C21684646
:10C95000FEF73DFC684601780220014368460170FD
:10C9600000240194039404940594012708A80694D4
:10C9700087701549684601840794E97B0177297C13
:10C980004177807FF9210840F721801C0840EF2182
:10C9900008404108490068468177142109A8FEF73C
:10C9A00016FC08A8099007A80A9068468785C485E0
:10C9B0000786A8680D903346F088103309AA6946A7
:10C9C000A2DF0FB0F0BD0000382A00001CB50446FD
:10C9D00081786A460C4802F0A7F9002812D16078E5
:10C9E0001C21484309491C2340181A46694602F095
:10C9F00055FA064806494030807A80000A58214698
:10CA0000684690471CBD000074210020F0270020DC
:10CA100050FF01007CB5134E00250C463060002904
:10CA200018D06946002000F0B5F8002819D101A9F6
:10CA3000012000F0AFF8002813D1684601790020EA
:10CA4000002901D0022004E069460978002900D0BD
:10CA50000B2020707068002802D1FEF780FE05468A
:10CA600028467CBDDC20002010B51C4C0188606885
:10CA700010290DD011290AD1401E606007D1FEF7A0
:10CA80006EFE002803D02168002900D0884710BD21
:10CA900000281ED100210122084600F0ADF8002830
:10CAA00001D0072811D107220221012000F0A4F8AB
:10CAB000002801D0072808D104220221002000F01C
:10CAC0009BF8002805D0072803D02168002900D052
:10CAD00088476068401C606010BD0000DC200020BA
:10CAE00010B5032000F006FA002801D0062800D176
:10CAF000002010BDF8B507460024234802E0641C5E
:10CB0000042C1AD2A2008258BA42F8D1042C14D2B2
:10CB10001D481E4E0C38002929D001290ED00229AB
:10CB20000BD16000201880194578002D05D01848D9
:10CB30000169002901D028468847F8BD61006118C5
:10CB4000755C8E19717800290CD011490A22496848
:10CB5000806851430E4A521CFEF79EFF002801D107
:10CB60000B4847700A48B17814300155DDE78068FA
:10CB7000FEF7D0FF06486100611814308919005D86
:10CB80008D78A842D1D0F8BD0CFF0100C02500204F
:10CB9000C420002004280CD2074A1269074B8000E9
:10CBA0001B5C01209840904300D0012008700020B9
:10CBB00070470020FAE70000000500500CFF01005C
:10CBC00010B5042806D007280ED00A2801D102F09B
:10CBD000B1FC10BD07481321808876DF06E00028ED
:10CBE000F7D0FEF7C3FE10BDFFF74CFA0828F6D1C8
:10CBF00010BD00008020002070B50023042811D251
:10CC0000440004190D4D012A02D101290DD0002242
:10CC100046008019094E801900290CD0012906D040
:10CC2000022906D00723184670BD0D30C2B22A551E
:10CC3000F9E74270F7E78270F5E70000C0250020B1
:10CC400010B5054A0146127A0020D20702D00846E4
:10CC500000F054F810BD0000C420002070B50E464E
:10CC6000204905464E608D6000200A61A9071ED547
:10CC70000024012211462046FFF7BEFF641C042C4D
:10CC800002D20028F5D012E0002810D17208042149
:10CC90001548FEF723FE002809D1FEF70DFE0028F7
:10CCA00005D11148114A00211438FEF797FEE90713
:10CCB00006D00F220E4952058A600023CB608A619C
:10CCC00000280DD108480B4A00211C38FEF786FECB
:10CCD000002805D10448084A01211838FEF77EFED5
:10CCE00070BD0000C42000201CFF010031CF0100F6
:10CCF0000005005059E50100F9B70100FEB57A4D75
:10CD00000722EB6892059A4302936B6800939C009C
:10CD100006461B1900200121019349050746734C63
:10CD20003300FEF7F5FB180D1515374755677C885E
:10CD30007F8891DE9E9E9E9E9EC8CED1D8DEDE1458
:10CD40000F21029A49059143A160E7602F70FEBD53
:10CD5000A260E76060680F2252055040800209D54A
:10CD6000A160E760022E02D1E120C0000AE07D2030
:10CD7000400107E0E160A760022E01D1C82001E078
:10CD8000FF2091302E706421FEF7D0F900994143C5
:10CD900000223FE0A260E76060680F225205504029
:10CDA000800204D5A160E76019204001EAE7E16054
:10CDB000A760E3E7A260E76060680F225205504079
:10CDC000800202D5A160E760D1E7E160A760D7E704
:10CDD000A260E76060680F2252055040800202D5D1
:10CDE000A160E76001E0E160A7602E70009841005B
:10CDF00000220FE0A260E76060680F2252055040F9
:10CE0000800202D5A160E76001E0E160A7602E70BA
:10CE10000099002236480068FEF73EFEFEBDA26083
:10CE2000E7601BE061680120800502468A43A2603A
:10CE30000140E16010E06068012189050A468243F3
:10CE4000A2600840E060E3E76068012189050A46C6
:10CE50008243A2600840E0600199C9E7E160A760F1
:10CE60002DE023484068FEF755FE11218A1B01D0B2
:10CE7000002807D00F22E96852051140A160E76041
:10CE8000EF60FEBD0121C905E960012A0CD91046F9
:10CE9000C82148436421FEF749F9696800224143EB
:10CEA00013484068FEF7F8FD0F22E968520511406B
:10CEB000E160A760FEBD0F214905A160E7602E700B
:10CEC000FEBD07229205AAE70D214905A160E76092
:10CED00001218905C2E70321C905A160E760891026
:10CEE000BCE70F214905B9E7C42000200005005028
:10CEF00000FF0100F0B500210B4C0C4D03273F044F
:10CF00008A00A25892005619326801238B400340D0
:10CF100000D00323BA431B0413433360491C042984
:10CF2000EED30020F0BD00000CFF01000007005010
:10CF300010B500780221FFF7DDFD10BD0022D243BD
:10CF4000830004490428CA5002D30818203002770D
:10CF50007047000054280020F0B50025ED43002A5A
:10CF600002D00023042601E0042308260B4C04E031
:10CF70009F00E7597F1C04D05B1CB342F8D32846BE
:10CF8000F0BD26185DB2203635709E00A151002AF2
:10CF9000F5D1E11820310877F1E70000542800208E
:10CFA0000249091820200856704700005428002024
:10CFB000FFB58FB01E4615460F0002D10020FEF7C8
:10CFC000D5FC002D02D10020FEF7D0FC1C216846C4
:10CFD000FEF7FDF8684601780220014368460170BB
:10CFE00000240194039404940594012108A8069454
:10CFF000817068460F9901840794317801777178C0
:10D000004177807FF9210840F721801C0840EF21FB
:10D0100008404108490068468177142109A8FEF7B5
:10D02000D6F808A8099007A80A9068468585C4859F
:10D03000058604480D9709AA69460088189BA2DF57
:10D0400013B0F0BD18210020F8B53E481422017835
:10D0500051430C18E0680C2148433A492769CC3108
:10D060004018058941890091241D466801F0EAFEB7
:10D0700001463846FEF75AF8002932D000200099C0
:10D08000A2884D436188AE198918CD1900222E4916
:10D0900000280A6109D001F0D5FE6188884222D0BB
:10D0A000B54202D1A08800281DD0A06802281AD05D
:10D0B00001F0C8FEA188CA1901461046FEF736F8ED
:10D0C000214C8808E06001F0BDFE01462846FEF7CD
:10D0D0002DF8002911D00020B5422FD000280ED005
:10D0E0002CE00120CBE701F0ADFE01463846FEF70B
:10D0F0001DF815494861032021E00120ECE7ADB29D
:10D10000B7B201F09FFE01463846FEF70FF806461B
:10D1100001F098FE01462846FEF708F8864201D144
:10D12000781B09E001F08EFE064601F08BFE0146F9
:10D130002846FDF7FBFF701A80082061022002F0EC
:10D1400051FAF8BDB82800207C21002010B507480E
:10D1500014220178514308180079042802D000F005
:10D1600059F810BD012002F03DFA10BDB82800208A
:10D1700010B50B481422017851430818094AC18898
:10D1800011620079012806D0032801D0042801D1BA
:10D19000FFF75AFF10BD012002F024FA10BD000075
:10D1A000B82800207C21002014225043054A002189
:10D1B00080180171C18001220161C2604161018159
:10D1C00070470000B8280020F8B5104C069E65781E
:10D1D0000A2D19D027787D190A2D00D30A3D14276E
:10D1E0007D432D1928716A6103C92961E860EB80CC
:10D1F0002E816078401C607005480078002801D1BD
:10D20000FFF7B6FF0020F8BD0420F8BDB8280020C5
:10D210007C21002010B50D4C1421207848430119C1
:10D220000020091DFEF7B4FB2078FFF7BDFF6078F2
:10D23000401E60702078401CC0B220700A2801D1C6
:10D2400000202070002002F0CDF910BDB828002089
:10D25000F8B52348C16800293ED00E6821494C68C2
:10D260000769C078E11B0D022D0AED1C002814D1BE
:10D2700001201D4A000450601B4A403A50601B497F
:10D28000400008601A4908601A49012008602F20F0
:10D29000FDF720FF12490120C870B54200D2354683
:10D2A000E81900020F4B000A403318600D4A51681C
:10D2B000001B091B0902090A0002000AC91C81425D
:10D2C00009D9506818602F20FDF704FF0120074995
:10D2D000400480390860F8BD01F05CFFF8BD000033
:10D2E000B4210020001501404013014080E200E01D
:10D2F00000E100E000100140F8B506461088144631
:10D300008446801D0D46984201D90C20F8BD328814
:10D310000720062AFAD31927FF01184BBA4201D970
:10D320009A42F3D171880629F0D3B94201D99942C2
:10D33000ECD19A4203D0994201D08A42E6D8052125
:10D340006046295420881221401C80B22080295434
:10D350002088401C80B220804119308802F0D0FC27
:10D360002188401880B220804119708802F0C8FCE2
:10D370002188401820800020F8BD0000FFFF000039
:10D3800010B5FEF7F3FA10BDF8B5164801F060F8D5
:10D39000144D00260C3D144C002807D0616900296B
:10D3A0001CD001206A461070684616E028780028D4
:10D3B00005D06169002911D0684606700DE06878D3
:10D3C00000280DD0A168094800220068FEF764FB20
:10D3D000002803D0A169002900D088472E70F8BD2D
:10D3E0006168F0E710210020102700203CFF0100B9
:10D3F00070B5094B04469E7A082000250E4207D0DE
:10D400000648844202D01889A04202D1002015604B
:10D4100070BD052070BD000024280020FFFF000023
:10D420000C214843064910B5012240188272911E12
:10D430000181FF21C1720721FDF7C9FE10BD000067
:10D440002428002010B5134C207900071FD46069F0
:10D45000401C6061E068002801D0042004E001F075
:10D4600029F8002803D0022002F05CFA10BD2069E0
:10D47000002809D06068C10701D00320F4E701212A
:10D48000084360600020EFE7FFF760FE10BD02F088
:10D490003DFA10BD7C21002010B5084841680A07FC
:10D4A00008D48A0702D5012211434160022002F00C
:10D4B00039FA10BD02F02AFA10BD00007C210020CC
:10D4C000F8B500260124154D23E06968F0004718DF
:10D4D000387821462A698140114218D08A432A614E
:10D4E00001F0D8FA3A782146EB689140194003469A
:10D4F000934099420BD17978012901D0012100E0B4
:10D5000000217B684140002B01D010469847761CD3
:10D51000F6B228788642D8D3F8BD0000A0210020BA
:10D52000FEB50E46044681786A46234801F0FCFBAE
:10D53000002827D160780C21204F4843C019807AF9
:10D54000400620D4022E1ED0012E1ED01C4DA078E5
:10D550001C21484319490023F83941181C22684608
:10D56000A847002813D0022E0CD020780C21484365
:10D5700012490C314018807A124980000A5821461D
:10D5800068469047FEBD104DE1E7104DDFE7022EE3
:10D59000F8D060780C214843C019817ABF2211402D
:10D5A000817260781C2148430449343941181C2396
:10D5B0001A466846A847D8E774210020242800208E
:10D5C00091F8010040FF0100DDF0010001F00100D1
:10D5D00070B50546114A124800241C2363431B18EA
:10D5E0009B7EFF2B04D0641C072CF6D3104670BD25
:10D5F0000A78022A09D01C2262431018FD22827682
:10D6000007221030FDF7BCFD04E01C21614308181F
:10D61000FE2181762C700022E8E7000043800000A4
:10D620002C270020F7B505250F4F06460024002EB5
:10D630000AD01C206043C019072231461030FDF784
:10D64000D8FD002807D00AE01C206043C019018BD8
:10D650000298814203D101980025046002E0641C15
:10D66000072CE4D32846FEBD2C2700207CB50546B8
:10D6700081B26A46074801F057FB040008D15421E3
:10D68000684601F07BFB040002D1284601F0A4FAB1
:10D6900020467CBD7421002010B5100001D0FEF79B
:10D6A00065F9002010BD00001FB56946087301F040
:10D6B000CFFB002801D0FEF759F903A800F01AFAB1
:10D6C000002801D0FEF752F901A805210130FDF72D
:10D6D0007EFD6946497901200143812211403031A4
:10D6E0004A06520E69464A7107228A711022CA718F
:10D6F0000549009169460871044800F00FFB0028B5
:10D7000001D0FEF733F91FBD99D601008220002019
:10D71000F0B591B00546FF24002007940290E94837
:10D720000078002849D0E84F3868002845D001A883
:10D7300000F0D2F9002801D0FEF718F9281D059055
:10D740002C2069460883FF20002688710E710396FD
:10D75000DD4C28880C3C10280ED0A88803AA022192
:10D76000FFF746FE002807D103980C214143091911
:10D77000CA7A69468A7148712A881320192A7DD08D
:10D780000FDC102A1BD0112A55D0132A77D0142A67
:10D7900013D103980C2148430019C07AFF286FD099
:10D7A000A1E0CA491A2A6CD01E2A65D0522A04D197
:10D7B000B87A8000095801A8884711B0F0BDC44F5D
:10D7C00003AA01213846FFF713FE0028F5D103997B
:10D7D0000C20484302220019827211236A461374F6
:10D7E0005171A98801812946083107220091FDF76E
:10D7F000C7FCE87DC10707D04108B2480830405C4B
:10D80000FF2808D0079006E03A4607A90098FFF7DE
:10D8100009FF002837D103990C22514309190798B1
:10D82000C8728A7A08231A438A726946887101A8E5
:10D83000FFF7CCF827E003980C2148430119887AB8
:10D84000FD2210408872010706D5C0090DD00021C5
:10D8500001A8FFF765FE08E068468079FF2804D03C
:10D8600001F0BAF9FF206946887103980C225043F1
:10D870001021001981721220694603E08BE043E019
:10D8800014E0E4E00874324604A901A8FEF77AF82F
:10D890006846007C122890D103980C214143091955
:10D8A000897A012989D0FFF7BBFD86E72A8A07A973
:10D8B0000020FFF7B7FE00280ED103990C22514338
:10D8C00009190798C8728A7A08231A438A72694626
:10D8D000887101A8FFF77AF803980C2148430019D2
:10D8E000C07AFF2806D003981C2148437649403966
:10D8F0004018029003981C21484376494218A88892
:10D900000023029986DF58E76946087403980C21C2
:10D9100048430119887A042210438872CA7AFF2A80
:10D920000BD04022104388721620694608740023E9
:10D93000A8881A4685217FDF21E007A8FFF748FE67
:10D9400000281FD0064600200D9003990C224A4360
:10D950001219D27A1C235A435E4B0F90D2180E92A2
:10D960001C2251431A46C4328918109009910A901A
:10D970000B900C903A1DA88809AB00217FDF00288E
:10D9800093D180E769460798887103990C22514327
:10D990000919C872D7E7787A0C21400840007872DC
:10D9A00003986F4602464843011984468B7AFB2050
:10D9B00003408B7214203874287A002806D0580649
:10D9C000DFD4C87AFFF752FE2E7A5CE7687A400708
:10D9D000D7D5B879FF28D4D008273B438B726B7B0F
:10D9E0009B0708D51C2503466B433A4D5B199D7E6A
:10D9F0006D086D009D76CB7AFF2BC2D06346E35C49
:10DA0000022B10D01C225043324D072240191030F7
:10DA1000FDF7B6FB684680791C2148434019817E9A
:10DA2000FD2211400DE01C214A432749403951187D
:10DA30004A8A1C214843274940180283817E4908AD
:10DA400049008176012101A8FFF76AFD1BE7287ACA
:10DA50000209012A23D10007000F01281FD10398D2
:10DA60000C2242431219927A120718D51821484302
:10DA70001549243940180E210830FDF7A8FB16205F
:10DA80006946087403980C2148430119887A60227A
:10DA900010438872787A0221084378720FE0039865
:10DAA0000C2250430019827A80231A438272152077
:10DAB0006A461074B87A8000095801A88847002681
:10DAC000E1E60000642100203028002060FF010012
:10DAD000FFFF00002C270020002806D0FF21017046
:10DAE00041708170C170002070470148704700008C
:10DAF0000E800000F0B585B0040036D0294800251E
:10DB00000560457285722846FFF78AFC2548182172
:10DB10002438FDF75CFB0026FF27304601F05CF857
:10DB200021488755761C072EF7D3542168468180FB
:10DB30000721C1801D481C4900900831684601F04A
:10DB400001FA00280FD1184E0120083E30702078CD
:10DB500000280CD069468888C988484381B230467D
:10DB6000103001F00BF905B0F0BD1148FBE7114F83
:10DB700000240D48A1B202AA083001F0D5F800280F
:10DB800009D11C206043C01900231C2202A901F006
:10DB900085F9002801D03570E5E7641C072CE8D32F
:10DBA000E1E70000302800206C210020B9DB0100F3
:10DBB0000E8000002C270020FFB5554891B000686A
:10DBC0001A9F1E4600286AD0542F68D86846FFF76F
:10DBD00083FF002801D0FDF7C9FE002468460470C9
:10DBE0000471254605970696A9B20FAA494801F087
:10DBF0009BF8002806D108220FA91198FDF7F9FA21
:10DC0000002819D06D1C072DEED368468078079048
:10DC1000FF2844D012982025032810D03E481C210C
:10DC2000301AFDF783FA0127072825D204A80290AD
:10DC30001398002812D019E068468570E5E7542F44
:10DC400003D040206946087101E0684605716846C6
:10DC5000017903200143684601714FE00799384676
:10DC600088402C4910394968084218D0079802F0BA
:10DC70004DF86846057138E025481C214038301AB7
:10DC8000FDF754FA00280CD0214D1821243D701BBB
:10DC9000FDF74CFA00281AD040206946087115B0EB
:10DCA000F0BD04A8029068460571447018480B94B2
:10DCB0000C300C904C380790684680781C21484303
:10DCC000154905954018089007A806900DE03021E9
:10DCD000684601714470C7700D480C38807A80071F
:10DCE00003D428461821FDF772FA129869460228D3
:10DCF00008790BD0022108436946087104A80290F4
:10DD000001A96846139AFDF73DFEC8E73843F4E7DA
:10DD100030280020742100202C27002070B50646F2
:10DD200018480D46007800280ED01749002E0ED056
:10DD3000002D0CD02868002809D0144C2168002937
:10DD400007D011480A3870BD0F48801F70BD0846C3
:10DD500070BD20600522691D201DFDF711FA28798C
:10DD6000A072207A0221400840000843FB221040A4
:10DD70002072E0790123184308431040E07100202D
:10DD8000307070BD642100200E800000302800201B
:10DD900010B50E4900234A788C78A24212D0521C4A
:10DDA000D2B24A70022A00D14B704A78074B9200D7
:10DDB00018339A580260086910180002000A0861B6
:10DDC000012010BD0360002010BD0000B421002020
:10DDD00070B5022204460270012060700620A07017
:10DDE0001A20E070FF2020710C4D1520A98A617166
:10DDF000090AA171E27120722046093010222946D9
:10DE0000FDF7BEF9298A6176090AA176698AE17669
:10DE1000090A2177A87D60771E2070BDF4210020BB
:10DE200010B5002803D0112802D0FDF7C7FD10BDA2
:10DE30000248082241681143416010BD7C21002046
:10DE400010B51C4C217820464068012906D00229D3
:10DE500029D0032912D1000717D513E0000711D4E8
:10DE600015481422017851430818C188A28B891AD9
:10DE70000904090CC18002D001F00CFD10BDFFF7B0
:10DE8000C9F910BD00F09EFC10BD6069401C6061C6
:10DE900000F010FB002803D0207801F0A3FB10BD98
:10DEA000FFF754F910BD6078044980000858804796
:10DEB00010BD00007C210020B828002094FF010044
:10DEC00010B528DFFFF7ACFF10BD10B529DFFFF755
:10DED000A7FF10BD002804D00349496D0160002050
:10DEE0007047032070470000B02900200EB51120B4
:10DEF000694608720A220FA102A87CDF002801D01F
:10DF0000FDF734FD0E4878DF002801D0FDF72EFD27
:10DF10000021FF20913000916A460191108043005A
:10DF200053809180D08068467ADF002801D0FDF7C9
:10DF30001DFD0EBD53636F70652054657374000042
:10DF40004103000000207047002070470020704708
:10DF5000F8B506464078182104464C4324490C2263
:10DF600050436118224A00254B6818328018AE468B
:10DF70002F469C46002B0CD0827A1346D20908D03B
:10DF80005A0606D40D461A4A614689B21759083511
:10DF90008E46174C008918343B4672462946A9DF45
:10DFA0000B2819D0002800D01248012F13D1707807
:10DFB0000C214843001900890F4AA7DF00280AD026
:10DFC0000E49884212D0082810D0891C88420DD0F2
:10DFD00011280BD00020F8BD70780C214843012394
:10DFE0000019008972462946A9DFE0E70148F8BD1B
:10DFF0000C28002041800000FFFF000002300000DC
:10E0000070B50C46014660781822084D50434019FF
:10E01000382300F043FF002807D1617818225143CC
:10E0200049194A68521C00D14A6070BD0C28002072
:10E03000F3B585B00D460E206946088268780C213C
:10E0400003274843224E3B468019008904AA6946AB
:10E05000AADF002838D1687818214843741A0019BB
:10E0600069460A8A0830FDF7C4F80028687807D0A6
:10E07000182148430119496800290DD0154E0CE0BC
:10E080000C2141438919897A89071DD418214843F5
:10E090000019FDF79CF817E00F4E27506846028ADA
:10E0A000687818214843001942606878484300198D
:10E0B00069460830FDF764F868781821484301196B
:10E0C000382318220598B047002007B0F0BD0000A3
:10E0D00024280020DDF0010001F0010010B5FFF759
:10E0E00037FF10BD10B5FFF78BFF10BD10B5FFF760
:10E0F0009FFF10BDF8B50746104E0125BD403068A2
:10E10000FDF708FD00280DD10D4C2069284207D1EC
:10E11000384600F0BFFC0028E06804D0284303E044
:10E12000A8432061F8BDA843E0602069002228438D
:10E130002061A1683068FDF7AFFCF8BDA8FF0100C1
:10E14000A021002030B58FB005461C216846FDF7A0
:10E150003EF8694608780A21084369460870002499
:10E1600001940394049405940694A87C08A98870EB
:10E17000154869460884601C0007000F103007949A
:10E18000087711204877887FF9210840F721801C03
:10E190000840EF2108404008400069468877142174
:10E1A00009A8FDF714F808A8099007A80A9001200B
:10E1B00069468885CC8508860D942888AB1C09AAF9
:10E1C000A2DF0FB030BD0000272A000070B51B4C45
:10E1D000207900072ED41A481422017851430D18D3
:10E1E0002E6900F02FFE0146E8882A89761E8018E5
:10E1F0008019FCF79BFF21690025002909D061697E
:10E20000814206D1E560606801210843606000201A
:10E210000AE000F04FF9002802D00220E56003E098
:10E220002069002803D0032001F07CFB70BDFEF7BD
:10E230008DFF70BD01F06AFB70BD00007C210020E5
:10E24000B828002010B51249124801F0A1F8114C6D
:10E2500081B2143CA068401CA0600D486038FEF7F5
:10E2600085FA002809D0082807D00B49884204D035
:10E270000A49884201D0FDF779FB0321A068FCF729
:10E2800055FF002901D0012000E00020207010BDC2
:10E29000602500209420002004300000013400009C
:10E2A000F0B5002406460D46601C010795B0090F25
:10E2B00008A810310C940174297B4174817CF927E2
:10E2C0003940891C81741C2105A8FCF780FF684631
:10E2D000017D10200143684601750CA806940A9040
:10E2E0000894099401220B9408A88276174968467D
:10E2F00001870D94697B08A80175A97B4175817D13
:10E30000F7203940891C0140EF200140114308A843
:10E31000817514216846FCF75AFF0EA800900DA8DD
:10E3200001900FAA0021304600F012F8014668461D
:10E3300001811421448181810FA804903346F08823
:10E3400008336A4605A9A2DF15B0F0BD372A0000E0
:10E35000F7B542790025002A00D004252222135C5B
:10E360000222002B00D01543CBB2FF2907D901228E
:10E370001543029A090A53709170032602E002992C
:10E3800002264B7004464034A189002901D0102197
:10E390000D43002716E0B11C142909D9A189C91B16
:10E3A0004A007900091824302431FCF7E9FE0CE01A
:10E3B000029B7A0012189B19928C1A70120A5A70DA
:10E3C000CEB27F1CA189B942E5DCA089C01BA08127
:10E3D000029805703046FEBDF8B51C4C2078002828
:10E3E00033D02069002807D00026E068002805D037
:10E3F0000025002E04D011E00126F6E70125F8E7FC
:10E40000684652DF052804D0002804D0FDF7AEFA94
:10E4100004E0012602E0216900988847002D10D110
:10E42000608869460880A06861DF052804D000285C
:10E4300004D0FDF79BFA04E0012502E0E168A06842
:10E440008847002EDCD0002DD3D0F8BDD421002089
:10E45000418805480288914204D34088814201D80E
:10E460000120704700207047082100201048018CCF
:10E47000C9B2012917D1818C090714D1018D090670
:10E480000A0F03D1828D1206120F0ED0090F012937
:10E4900003D1828D1206120F07D0032903D1808D7C
:10E4A0000006000F01D000207047012070470000D7
:10E4B000C00F00F070B50E481422017851430C18BB
:10E4C000256900F0BFFC0146E08822896D1E801896
:10E4D0004019FCF72BFE07494A69824206D3824263
:10E4E00002D10869002801D0002070BD012070BD54
:10E4F000B82800207C210020800701D00020704730
:10E500000120704730B51588EC1C9C4201D90C20C5
:10E5100030BD02244C5513881C255B1C9BB2138014
:10E52000CD5413885B1C9BB21380012807D00228AE
:10E5300007D0032807D0042807D0072030BD0020CB
:10E5400004E0012002E0CC5401E00320C85410880C
:10E55000401C1080002030BD10B50448017AC90766
:10E5600002D00078FEF7CAFB10BD0000C4200020D6
:10E57000F8B52C49C8680A690C780F79896886460D
:10E58000944600913EE00099E20055182A7836E062
:10E59000182353436968521CC918AB78D2B293420E
:10E5A00000D100220B78022B02D0032B27D123E0CD
:10E5B0004E680346014603E0B14204D00B46C969E8
:10E5C00000291CD0F8E7002919D08B4208D1C06976
:10E5D000002805D1144F0126BE600026B44601274D
:10E5E0000E68C969D961002909D00B689B190B60B5
:10E5F00005E00174C06900E000210028F9D16978C4
:10E600009142C5D12146641EE4B20029BBD105491F
:10E6100062460A61C8600F71704501D00120F8BDE3
:10E620000020F8BDB421002000100140F8B50446D8
:10E6300031480026C168009107784EE02E48F90065
:10E6400080680D1843E0002C02D02046E4691FE0EA
:10E650002878182141436A68401CC0B251182870BC
:10E66000AA78904200D12E700A784868012A30D1E9
:10E67000027C002A2DD18A684260CA6882600A69D9
:10E68000C260496981611C490979002900D046604E
:10E69000194943680A699C46991A0902174B090AE5
:10E6A000994202D28268891807E06146511A09022C
:10E6B0008268090A8A4202D9511A016000E00660A4
:10E6C0004660012186600174C66101F0BFF9002C2B
:10E6D000B9D1287869788842BAD138467F1EFFB20E
:10E6E0000028ABD10448C1680098814201D00120C4
:10E6F000F8BD0020F8BD0000B4210020FFFF7F001E
:10E7000088B001F003FA2A4A2A490320FEF7A6FA44
:10E71000002801D0FDF72AF901A90020FEF77AF9B7
:10E72000002801D0FDF722F968460079022837D089
:10E73000002069460870FEF7C5F8FDF753FB6946EF
:10E740000878FEF7B1FFFFF7D1FBFDF727F800F0DF
:10E7500073FE00F0C7FD1C216846FCF738FD05215B
:10E76000C90301910F2109040020029100900322A6
:10E7700069460A7310498A896946CA8108740F4834
:10E7800005900F4806906846FDF72CFE002801D042
:10E79000FDF7ECF8FDF7E8F90320FDF79FFC02E038
:10E7A0000120C6E748DF0028FCD0FDF7DFF8F9E7D5
:10E7B000C1CB0100CD0C000000250020A1EB010021
:10E7C00081D3010010B5044808224168914341609B
:10E7D000007800F007FF10BD7C21002070B51446C2
:10E7E00082880E4605462088111D4118921C9942C8
:10E7F00001D8FE2A01D90C2070BD521C3254208849
:10E80000FF21401C80B2208031542088401C80B2FF
:10E8100020808119288801F073FA2188401880B27D
:10E820002080AA88002A09D0A968002908D0801968
:10E83000FCF7A6FC2088A98840182080002070BD25
:10E84000072070BDF8B50F4601781446054601292A
:10E8500002D16878002806D02088821C9A422DD8E0
:10E86000012902D006E00720F8BD69784118891C0B
:10E87000994223D8181A801E86B2684606802188DD
:10E88000B81C081869467DDF0028EDD128780228D9
:10E8900005D169460988B14201D809210AE0082159
:10E8A000012805D16878B04202D86A46108001E09C
:10E8B0006846068068460088FE2801D90C20F8BD0D
:10E8C0002288401CB8542088401C80B220803954D3
:10E8D00020886946401C208009884018208000203C
:10E8E000F8BD0020704700207047002070470000EE
:10E8F0008207D30EFF229A408907090E10B599406E
:10E9000000280BDA03071B0F083B9C080C4BA400E4
:10E91000E318DC6994430C43DC6107E08408094B8D
:10E92000A400E418236893430B432360C106C90E77
:10E9300001208840044908600449086010BD0000B7
:10E9400000ED00E000E400E080E200E000E100E033
:10E95000F3B581B00F46019800F05AF90124002860
:10E960001E4E019817D0FEF71BFB80192030007F48
:10E970008009032802D0012806D007E01848006962
:10E9800001998C40204201D1022100E0032101982D
:10E9900000F0CEF8FEBD00F047F90028FAD001984B
:10E9A000FEF7FEFA05468100C81D0E4AF9308918A7
:10E9B0000A6980B222430A610B49401800210160B4
:10E9C000002FE7D00198FEF7EBFA800030580028BE
:10E9D000E0D00648AC404460FEBD00005428002052
:10E9E00000050050006500400060004000630040EA
:10E9F000FEB5044623480E46001920214156002743
:10EA0000C8171346401C01D0082738E0F278194691
:10EA10002046FEF7A1FA0546401C2FD0B07800280A
:10EA200007D01948A100091808680222904308601D
:10EA300007E000217378204600910A46019100F01A
:10EA400065F8F078002810D01048AA001018317826
:10EA500002690F4B1A400261E206D20C8907890B4A
:10EA60000A4301690A43026109E006483278401905
:10EA70002030017F92011143017700E004273846DE
:10EA8000FEBD000054280020000700500065004033
:10EA9000FFE0FCFF03490969C140C807C00F00D06F
:10EAA000012070470005005070B5124D28790028EC
:10EAB00001D0082070BD0F4900204039421E0B18BC
:10EAC0002033401CC0B21A702028F8D300242046FE
:10EAD000FEF734FA641CE4B2082CF8D303210620B4
:10EAE000FFF706FF01200449C00748600120287194
:10EAF000002070BD94280020006300400248007987
:10EB0000002800D0012070479428002030B5520022
:10EB10000A439900039C0A432102049D0A432904E5
:10EB20000A43024980004018026030BD00070050CF
:10EB3000820006481018026803231B049A430260EF
:10EB4000026809040A430260704700000007005091
:10EB5000034940180068012800D0002070470000D9
:10EB6000006000404058002800D001207047032278
:10EB7000120280184068084000D00120704710B58C
:10EB8000002809D0032806D10220FEF759F80028F2
:10EB900001D0FCF7EBFE10BD00F0CCFC10BD000076
:10EBA00010B50078002807D104483B21808876DF23
:10EBB000002801D0FCF7DAFE10BD00008020002004
:10EBC0000021425C002A01D001207047491C06291F
:10EBD000F7D300207047000070B505461C200B4994
:10EBE00068434418204611300621FCF7F0FA20460D
:10EBF0001021FCF7ECFAFF2121740020A176C0431C
:10EC00002083284601F082F870BD00002C270020E8
:10EC10000449081820214156042901DB01207047CE
:10EC2000002070475428002004490818202141562C
:10EC3000042901D201207047002070475428002089
:10EC400070B50D00044602D10020FCF78FFE002CA9
:10EC500002D10020FCF78AFE287820706988617054
:10EC6000090AA170A988E170090A2171E888607118
:10EC7000000AA07170BD000030B58FB005461C21A0
:10EC80006846FCF7A4FA694608780A2108436946F1
:10EC90000870002401940394049405940694A87CBD
:10ECA00008A98870154869460884601C0007000F91
:10ECB00010300794087711204877887FF9210840A1
:10ECC000F721801C0840EF210840400840006946B9
:10ECD0008877142109A8FCF77AFA08A8099007A8F0
:10ECE0000A90012069468885CC8508860D9428887D
:10ECF000AB1C09AAA2DF0FB030BD00003A12000021
:10ED000007490979490701D408207047002804D031
:10ED1000044949780160002070470E2070470000C8
:10ED20007C210020B828002030B5124B1B795B07EE
:10ED300001D4082030BD002805D0002A03D0046883
:10ED4000002C10D101E00E2030BD0B4B1D68002DB2
:10ED500009D045681889414369185D894543586859
:10ED60002818884201D8072030BD14600020516067
:10ED700030BD00007C21002084290020FEB505461E
:10ED800025480E460079400701D40820FEBD002D1D
:10ED900003D02868002834D101E00E20FEBD1F4CAE
:10EDA000216800292DD06089218948436168411874
:10EDB0006868814225D9FFF79FFB00280FD068685B
:10EDC000019029680C2251430F1979680091401A6B
:10EDD00039890C46FCF7AAF9002912D101E010206C
:10EDE000FEBD21463046FCF7A1F9002909D1002ECD
:10EDF00007D078894443019881190098001981420D
:10EE000001D90720FEBD0020024600903346294666
:10EE10000320FEF7D9F9FEBD7C21002084290020C3
:10EE200010B507484469601C06D000F00BF8014695
:10EE30002046FCF77BF910BD01200007406910BD9A
:10EE40000010001001200007006980B27047000028
:10EE500070B500240F482546047044702846FEF71C
:10EE6000A3F96D1C0A2DF9D30B4D6C80FFF7D8FF69
:10EE7000861EFFF7E7FF46430648AE60CC306C6164
:10EE80000460048144812C70AC610420EC616860F2
:10EE9000002070BDB82800207C210020FFB5274845
:10EEA00081B000791F4616460D46400702D408205F
:10EEB00005B0F0BD002D06D00198002803D02868C9
:10EEC000002815D101E00E20F2E71D4C2068002833
:10EED0000ED0618920896268414389186A6891422D
:10EEE00006D9002E04D0B04202D3F119814201D9D3
:10EEF0000720DDE70198FFF7FFFA00281BD038460E
:10EF0000FFF7FAFA002816D06868FFF7F5FA00282C
:10EF100011D068683246C1190198FCF731F90096A2
:10EF200028680C2148432458002202212846019BCE
:10EF3000A0470020BCE71020BAE700007C21002099
:10EF400084290020F8B52C4D044628790E46400748
:10EF500001D40820F8BD002C20D0002E1ED020683F
:10EF600000281BD0FFF76EFF0146A088814213D313
:10EF7000102811D3E08800280ED0FFF751FF471E5C
:10EF8000FFF760FF4743E288A188A8684A43121848
:10EF9000974201D3890703D00720F8BD0E20F8BDA2
:10EFA0006988012926D031600C22144B51437060CE
:10EFB000CA18506020685850A0881081E08850819D
:10EFC000FFF740FF0646FFF73DFFA188E288401E9D
:10EFD000514340183146FCF7BFF80446FFF732FFB3
:10EFE0000146A86861430818A8606888401C6880CA
:10EFF0000020F8BD0420F8BD7C21002084290020D9
:10F00000F8B5044620481E46007915460F464007CD
:10F0100001D40820F8BD002F05D0002C03D02068B3
:10F02000002815D101E00E20F8BD1848016800291C
:10F030000ED04289018940684A43101862689042A4
:10F0400006D9002D04D0A94202D3A819884201D9BB
:10F050000720F8BD3846FFF74FFA002811D0304698
:10F06000FFF74AFA00280CD06068FFF745FA00283D
:10F0700007D02B463A46214601200096FEF7A4F819
:10F08000F8BD1020F8BD00007C210020842900205C
:10F0900010B5114902460878002811D004280FD075
:10F0A000022A16D0032A0BD10A79120711D48A69D1
:10F0B000521C8A61032A08D0022802D000F092FA7A
:10F0C00010BD487800F02EFC10BD0D20FCF776FC3A
:10F0D00010BDFEF7B5FE10BD7C210020F8B504463A
:10F0E00020481E46007915460F46400701D40820E7
:10F0F000F8BD002F05D0002C03D02068002815D1C2
:10F1000001E00E20F8BD1848016800290ED04289A0
:10F11000018940684A4310186268904206D9002D60
:10F1200004D0A94202D3A819884201D90720F8BD0A
:10F130003846FFF7E1F9002811D03046FFF7DCF937
:10F1400000280CD06068FFF7D7F9002807D02B46BD
:10F150003A46214604200096FEF736F8F8BD102006
:10F16000F8BD00007C2100208429002010B507484C
:10F170000078002809D0054805491C3000F008F93E
:10F1800081B203487038FDF773FB10BD802000206A
:10F190007025002070B501240B49600408600B49FC
:10F1A00040108860094940398860094D6C602F2003
:10F1B000FBF790FFAC60074D00242F202C61FBF77C
:10F1C00089FFEC7070BD000080E100E04013014059
:10F1D00000100140B421002030B50A48FF21C57D50
:10F1E0000022094C0931094B002D625007D0996962
:10F1F000437EC268D154417E491C417630BD986936
:10F2000030BD00009C280020002000400025004068
:10F210001FB501236A46137010720348019106C896
:10F22000684690471FBD00009C28002008B5024991
:10F230000020009108BD00008020002010B50121B1
:10F24000202805DA1A4A8140114201D1194810BD1F
:10F250008107C90E002808DA0207120F083A92083F
:10F26000154B9200D218D26904E08208134B920029
:10F27000D2181268CA401106890F042911D2002938
:10F280000FD002290DD00E494C68C306DB0E0122B7
:10F290009A40002C08D0400980000B5813430B50B3
:10F2A00004E00448401C10BD06480260002010BD68
:10F2B000FC06FFBC0120000000ED00E000E400E0DF
:10F2C000E821002000E100E010B504480122417867
:10F2D000514041700248FDF7E2FA10BD8020002045
:10F2E0000025002070B51448012451216425846054
:10F2F00022C004711049114800F03EF80E488C21DC
:10F3000010300160FF212D3141600A21816000260B
:10F31000067301460948083000F02EF80648FF2120
:10F3200020300560F5318460416006730146034872
:10F33000103000F021F870BD502500208C200020F6
:10F3400010B503680A6889689C1A8C4202D9591A58
:10F35000016010BD01210260017110BD10B54B6844
:10F36000026889689C1A8C4202D95118016010BD4C
:10F3700000210360017110BD0A7B002A03D0496897
:10F380000160002102E009680160012101717047FC
:10F3900010B5044600790028204602D0FFF7DEFFB2
:10F3A00001E0FFF7CDFF206810BDFFB50746806A7A
:10F3B00081B0144600283DD000253846203000900A
:10F3C00033E00C20B96A68430E18B088801CFE2810
:10F3D00002D90C2005B0F0BD22880299401C885447
:10F3E00020881622401C80B2208002990A5420886E
:10F3F000401C80B2208002994118308800F080FCC7
:10F400002188401880B22080B288002A0AD0B168D2
:10F4100000290FD0029BC018FBF7B2FE2088B188EC
:10F42000401820806D1C0098EDB2007BA842C8D81F
:10F430000020CFE70720CDE730B5A3B0032118A8FF
:10F440000173142110A8FBF7C2FE0024012510A8A7
:10F45000109405711BA81290601C0107090F10A8D9
:10F460001031017344738473601C0107090F10A8E5
:10F470001031C1730020014610A8017401462848CC
:10F48000FDF7A0F9002801D0FCF770FA142115A8A7
:10F49000FBF79DFE0120014618A8103141700120A4
:10F4A000014618A8103181700020014618A8C170CB
:10F4B0000120014618A81031017110A81594057695
:10F4C000642118A817940170154815A91838FCF77D
:10F4D00035FF002801D0FCF749FA40216846FBF7C8
:10F4E00076FE10A16846FDF7DDF90120014608A867
:10F4F000103101770020014608A841776846FDF7E2
:10F5000055F8002801D0FCF731FA1AA91CA81A9462
:10F51000FDF70AF8002801D0FCF728FA23B030BD27
:10F52000002500204176617465636820496E632E72
:10F530000000000010B50020FDF782FB002801D07C
:10F54000FCF714FAFDF7CCFA002801D0FCF70EFA0C
:10F550003CDF002801D0FCF709FA10BD30B58FB0B0
:10F5600005461C216846FBF732FE694608780A21E9
:10F570000843694608700024019403940494059498
:10F580000694A87C08A98870154869460884601C00
:10F590000007000F10300794087711204877887F04
:10F5A000F9210840F721801C0840EF21084040085D
:10F5B000400069468877142109A8FBF708FE08A8CF
:10F5C000099007A80A90012069468885CC8508869D
:10F5D0000D942888AB1C09AAA2DF0FB030BD000033
:10F5E0002C11000010B50F490028087009D001281F
:10F5F00011D0022812D0032802D14869FEF760FC1E
:10F6000010BD00208861C861074840780028F7D005
:10F61000FDF7AEFD10BD00F03DF910BD00F09CF807
:10F6200010BD00007C210020B828002030B58FB02C
:10F6300005461C216846FBF7CAFD694608780A2181
:10F6400008436946087000240194039404940594C7
:10F650000694A87C08A98870154869460884601C2F
:10F660000007000F10300794087711204877887F33
:10F67000F9210840F721801C0840EF21084040088C
:10F68000400069468877142109A8FBF7A0FD08A867
:10F69000099007A80A90012069468885CC850886CC
:10F6A0000D942888AB1C09AAA2DF0FB030BD000062
:10F6B0005C140000002803D00249C8600020704795
:10F6C0000E207047D42100201CB503490191009100
:10F6D000694660DF1CBD00008020002070B50E462A
:10F6E0000546144614211046FBF771FD05202080C5
:10F6F00000202061207326726572002D01D0012048
:10F70000A072002070BD10B5FCF722F910BD0000FA
:10F7100070B5002901D08C0701D0072070BD074CBF
:10F720000125A16062800649636010DF0028F5D1E1
:10F7300025701620FFF782FD70BD0000D421002047
:10F7400007F70100002803D0024908610020704734
:10F750000E207047D4210020F8B5164C14226068A2
:10F760004008400060601448017851430E18376922
:10F77000FFF768FB01463846FBF7D8FC0546606199
:10F78000FFF760FB0146F0887F1EC019FBF7CEFC37
:10F7900002228542606801D1104300E0904360601E
:10F7A000E1681040084303D0002000F0BBF8F8BD2A
:10F7B0000220FAE77C210020B828002010B502487A
:10F7C0004069FEF77DFB10BD7C21002010B5FFF7DE
:10F7D00027FB441EFFF736FB4443FFF733FB044986
:10F7E0004A69521E5043CA682146FEF76EFB10BD9F
:10F7F0007C210020F8B510481422017851430C18E0
:10F800002569FFF71FFB0146E0882289801840190F
:10F81000FBF78CFC0F46FFF703FB461EFFF712FBBE
:10F820004643E0882289F1198018044A4019126978
:10F83000FEF74BFBF8BD0000B82800207C2100201B
:10F8400070B5FFF7FFFA0546FFF7EAFA441EFFF727
:10F85000F9FA60432946FBF769FCFEF731FB70BDFE
:10F8600070B5FFF7EFFA8608FFF7ECFA0749496928
:10F8700048430446FFF7D4FA451EFFF7E3FA68430E
:10F8800032462146FEF721FB70BD00007C2100209E
:10F890000020704770B514481422017851430C18A9
:10F8A000241DFFF7CFFA6188104E884211D2FFF76E
:10F8B000C9FA61880D1AFFF7C5FA8208A188E068C5
:10F8C0004018216940194919FEF7FFFAFFF7BAFA03
:10F8D00007E0A288E06880188A082169FEF7F5FA37
:10F8E0006088F06170BD0000B82800207C210020F5
:10F8F00010B505480079000703D4012000F012F884
:10F9000010BD00F003F810BD7C21002010B50448A4
:10F910000822416891434160407800F003F810BD2F
:10F920007C210020024948700249800008580047A5
:10F930007C21002080FF010010B50446FFF7A8FBE2
:10F940002046FBF78DFF2046FCF77CFB10BD70B511
:10F950000C00054602D10020FCF708F8002D02D16A
:10F960000020FCF703F8207828702088FF21090286
:10F970000840000A6870206809020840000CA8705E
:10F980002068000EE87020792871207A687120893B
:10F99000000AA871A068000CE87170BD10B5054898
:10F9A0000079000702D4FDF7D1FB10BDFFF7AEFFD1
:10F9B00010BD00007C210020FEB51F4C00252769EA
:10F9C000E06802906846FEF7E3F90190FEF7D0FD8B
:10F9D00006460198002822D000230098E16817E02D
:10F9E0000E680A46864202D9301A086012E0801B6F
:10F9F000F31800261660D668D169B446002E07D0E9
:10FA0000FE183602360A566066469660D56115467F
:10FA10000029E5D12846E160FEF708FE06E0284609
:10FA2000FEF704FE002801D1002E02D00298FDF757
:10FA30000FFC00202071FEBDB421002001200249EE
:10FA4000000508607047000000E200E010B50E4BB2
:10FA5000D968002906D002680C68A24204D8A21A0C
:10FA60000A60C161D86010BD0B4604E00B46C9694D
:10FA7000121B002904D00C689442F7D3A41A0C601E
:10FA80000260C161D86110BDB4210020F8B51D4DE0
:10FA9000EC68002C34D01C48002740682969401AC3
:10FAA0000602360A2068B04218D8361AC71922460C
:10FAB000107CE46900280FD0002010746B69002BC3
:10FAC00007D0916950699847002805D0FBF74EFF91
:10FAD00002E0516990698847002CE3D16978A878E1
:10FAE000814206D1401CC0B2A870022801D100207A
:10FAF000A87004490006800D18310F50FFF79EFFD3
:10FB0000F8BD0000B42100200015014010B500230D
:10FB1000184A05211846FBF777FF002801D0FBF7AC
:10FB200025FF154A01211548FBF758FF002801D091
:10FB3000FBF71CFF1148124A0121001DFBF74EFF85
:10FB4000002801D0FBF712FF0C480E4A01210830B3
:10FB5000FBF744FF002801D0FBF708FF07480A4ADB
:10FB600001210C30FBF73AFF002801D0FBF7FEFE25
:10FB700010BD0000B0220020A5BD0100ECFE010078
:10FB800045E201006DF10100C9F20100FF210748C3
:10FB90001D31002242500648828A8168895C828A2F
:10FBA000521C82820348C16170470000002000405F
:10FBB0009C280020002500401FB500216A461170D6
:10FBC0001072044882680192817506C868469047A1
:10FBD0001FBD00009C280020F0B5454D012185B0D7
:10FBE00049022846FEF7C3FF01270026414C0028A2
:10FBF00024D0FF2125312846FEF7B4FF00281DD070
:10FC0000FF2025302E5081203B4980008860A07E57
:10FC1000002800D16F6002216846017037490868EA
:10FC200008600390E17D68460172E0680190E67526
:10FC3000267606CC6846083C90472BE004212846EF
:10FC4000FEF795FF002825D0FF2109312846FEF751
:10FC500089FF00281ED0FFF7BFFAE07D617E884251
:10FC600018D1207E002808D0627EE168E075206906
:10FC7000E0602676667610460AE0A07E002800D175
:10FC80006F6081201C4980008860E675607EE168B5
:10FC9000FFF7BEFAFF211D312846FEF763FF00285B
:10FCA0000DD0A18AA07D814202D2FFF76FFF06E04E
:10FCB000FF211D316E50002801D0FFF77DFFFF218D
:10FCC00045312846FEF74EFF00280ED0FF20453074
:10FCD0002E50A07E002800D02F60E07D002804D0A8
:10FCE000E675607EE168FFF793FA05B0F0BD0000AD
:10FCF000002000409C280020002300408024004079
:10FD00000870000A487002207047000001218140FD
:10FD1000024842688A434260704700006421002024
:10FD200038B51549154A488890420FD04A78144C86
:10FD3000521CD2B24A70237B934208D3091D75DF4F
:10FD4000002803D0A169002900D0884738BD0025CC
:10FD50004D70217C002907D03B2176DF002803D09D
:10FD6000A169002900D0884761690029EED0684662
:10FD70000570884738BD000004210020FFFF000007
:10FD800010270020EFF30580C005C00D1AD01038F1
:10FD900040B2002808DA0107090F083989080C4A1F
:10FDA00089008918C96904E081080A4A890089180C
:10FDB00009688007C00EC1400806800F012803D0E3
:10FDC000032803D0022070470020704701207047AD
:10FDD00000ED00E000E400E042788378521CD2B2EB
:10FDE000934200D100220378934201D10020704752
:10FDF0000A70416840781822504308187047FFB5D0
:10FE000083B016460C9D0D9C1F460222009501945E
:10FE1000039800F00CF8002807D13B461022314629
:10FE200000950194039800F002F807B0F0BDFFB50B
:10FE300083B0074600200C9C8646268805463AE09B
:10FE40007868A90042181188684681805188C1806D
:10FE50000022694601A865DF002839D1684601788B
:10FE60000598814226D17046002801D0002200E08A
:10FE700002222088891842180D998A4227D8714693
:10FE800000290AD1401C80B22080069A049911549E
:10FE90002088401C208001208646218806980A1868
:10FEA000694601A865DF002812D1694620880978D3
:10FEB000401820806D1C3888A842C1DC704600289C
:10FEC0000AD02088801B401E80B2FF2802D90C2057
:10FED00007B0F0BD069988550020F9E7017900299F
:10FEE00002D1007B002800D0012070473022002082
:10FEF00050220020702200209022002001000007E4
:10FF000080250020A0250020CC2500201100000025
:10FF10001200000013000000140000001100030094
:10FF2000F5CA010012000300F5CA01001300030026
:10FF3000F5CA010014000300F5CA0100F0260020F4
:10FF4000EBE8010031E001004DDF0100EDE00100D0
:10FF5000E7E8010001E0010049DF0100E5E0010000
:10FF6000E3E8010051DF010045DF0100DDE00100B1
:10FF700023D1BCEA5F782315DEEF121200000000E7
:10FF800041F8010061F80100BDF70100F5F701003B
:10FF9000CDF70100F1F8010099D4010045D401002A
:10FFA0009DF90100CDE1010090290020030000002F
:10FFB000D0FF0100802000207401000030B2010059
:10FFC00000000200F4210020141000003AB50100E6
:10FFD0003201031EFFFF149B1101140D18011A0FAB
:10FFE000041A0A04001128FFFE2D121E4B0FA499BB
:10FFF0004ECEB531F40545091E6801E51324F40021
:040000050001B0C185
:00000001FF
